{
  "_format": "hh-sol-artifact-1",
  "contractName": "votingsystem",
  "sourceName": "contracts/simplevote.sol",
  "abi": [
    {
      "inputs": [
        {
          "internalType": "string[]",
          "name": "candidateNames",
          "type": "string[]"
        }
      ],
      "stateMutability": "nonpayable",
      "type": "constructor"
    },
    {
      "anonymous": false,
      "inputs": [
        {
          "indexed": false,
          "internalType": "address",
          "name": "voter",
          "type": "address"
        },
        {
          "indexed": false,
          "internalType": "string",
          "name": "cand",
          "type": "string"
        }
      ],
      "name": "votecasted",
      "type": "event"
    },
    {
      "inputs": [
        {
          "internalType": "uint256",
          "name": "",
          "type": "uint256"
        }
      ],
      "name": "candidates",
      "outputs": [
        {
          "internalType": "string",
          "name": "name",
          "type": "string"
        },
        {
          "internalType": "uint256",
          "name": "nov",
          "type": "uint256"
        }
      ],
      "stateMutability": "view",
      "type": "function"
    },
    {
      "inputs": [],
      "name": "getwinner",
      "outputs": [
        {
          "internalType": "string",
          "name": "",
          "type": "string"
        }
      ],
      "stateMutability": "view",
      "type": "function"
    },
    {
      "inputs": [
        {
          "internalType": "address",
          "name": "",
          "type": "address"
        }
      ],
      "name": "isvoted",
      "outputs": [
        {
          "internalType": "bool",
          "name": "",
          "type": "bool"
        }
      ],
      "stateMutability": "view",
      "type": "function"
    },
    {
      "inputs": [
        {
          "internalType": "uint256",
          "name": "candidateindex",
          "type": "uint256"
        }
      ],
      "name": "vote",
      "outputs": [],
      "stateMutability": "nonpayable",
      "type": "function"
    }
  ],
  "bytecode": "0x60806040523480156200001157600080fd5b506040516200104438038062001044833981810160405281019062000037919062000373565b60005b8151811015620000dc5760016040518060400160405280848481518110620000675762000066620003c4565b5b60200260200101518152602001600081525090806001815401808255809150506001900390600052602060002090600202016000909190919091506000820151816000019081620000b991906200063e565b506020820151816001015550508080620000d39062000754565b9150506200003a565b5050620007a1565b6000604051905090565b600080fd5b600080fd5b600080fd5b6000601f19601f8301169050919050565b7f4e487b7100000000000000000000000000000000000000000000000000000000600052604160045260246000fd5b6200014882620000fd565b810181811067ffffffffffffffff821117156200016a57620001696200010e565b5b80604052505050565b60006200017f620000e4565b90506200018d82826200013d565b919050565b600067ffffffffffffffff821115620001b057620001af6200010e565b5b602082029050602081019050919050565b600080fd5b600080fd5b600067ffffffffffffffff821115620001e957620001e86200010e565b5b620001f482620000fd565b9050602081019050919050565b60005b838110156200022157808201518184015260208101905062000204565b60008484015250505050565b6000620002446200023e84620001cb565b62000173565b905082815260208101848484011115620002635762000262620001c6565b5b6200027084828562000201565b509392505050565b600082601f83011262000290576200028f620000f8565b5b8151620002a28482602086016200022d565b91505092915050565b6000620002c2620002bc8462000192565b62000173565b90508083825260208201905060208402830185811115620002e857620002e7620001c1565b5b835b818110156200033657805167ffffffffffffffff811115620003115762000310620000f8565b5b80860162000320898262000278565b85526020850194505050602081019050620002ea565b5050509392505050565b600082601f830112620003585762000357620000f8565b5b81516200036a848260208601620002ab565b91505092915050565b6000602082840312156200038c576200038b620000ee565b5b600082015167ffffffffffffffff811115620003ad57620003ac620000f3565b5b620003bb8482850162000340565b91505092915050565b7f4e487b7100000000000000000000000000000000000000000000000000000000600052603260045260246000fd5b600081519050919050565b7f4e487b7100000000000000000000000000000000000000000000000000000000600052602260045260246000fd5b600060028204905060018216806200044657607f821691505b6020821081036200045c576200045b620003fe565b5b50919050565b60008190508160005260206000209050919050565b60006020601f8301049050919050565b600082821b905092915050565b600060088302620004c67fffffffffffffffffffffffffffffffffffffffffffffffffffffffffffffffff8262000487565b620004d2868362000487565b95508019841693508086168417925050509392505050565b6000819050919050565b6000819050919050565b60006200051f620005196200051384620004ea565b620004f4565b620004ea565b9050919050565b6000819050919050565b6200053b83620004fe565b620005536200054a8262000526565b84845462000494565b825550505050565b600090565b6200056a6200055b565b6200057781848462000530565b505050565b5b818110156200059f576200059360008262000560565b6001810190506200057d565b5050565b601f821115620005ee57620005b88162000462565b620005c38462000477565b81016020851015620005d3578190505b620005eb620005e28562000477565b8301826200057c565b50505b505050565b600082821c905092915050565b60006200061360001984600802620005f3565b1980831691505092915050565b60006200062e838362000600565b9150826002028217905092915050565b6200064982620003f3565b67ffffffffffffffff8111156200066557620006646200010e565b5b6200067182546200042d565b6200067e828285620005a3565b600060209050601f831160018114620006b65760008415620006a1578287015190505b620006ad858262000620565b8655506200071d565b601f198416620006c68662000462565b60005b82811015620006f057848901518255600182019150602085019450602081019050620006c9565b868310156200071057848901516200070c601f89168262000600565b8355505b6001600288020188555050505b505050505050565b7f4e487b7100000000000000000000000000000000000000000000000000000000600052601160045260246000fd5b60006200076182620004ea565b91507fffffffffffffffffffffffffffffffffffffffffffffffffffffffffffffffff820362000796576200079562000725565b5b600182019050919050565b61089380620007b16000396000f3fe608060405234801561001057600080fd5b506004361061004c5760003560e01c80630121b93f146100515780633477ee2e1461006d5780639acc45511461009e578063e7bb7cbe146100ce575b600080fd5b61006b600480360381019061006691906104a0565b6100ec565b005b610087600480360381019061008291906104a0565b610254565b60405161009592919061056c565b60405180910390f35b6100b860048036038101906100b391906105fa565b610310565b6040516100c59190610642565b60405180910390f35b6100d6610330565b6040516100e3919061065d565b60405180910390f35b6000803373ffffffffffffffffffffffffffffffffffffffff1673ffffffffffffffffffffffffffffffffffffffff16815260200190815260200160002060009054906101000a900460ff1615610178576040517f08c379a000000000000000000000000000000000000000000000000000000000815260040161016f906106cb565b60405180910390fd5b60018054905081106101bf576040517f08c379a00000000000000000000000000000000000000000000000000000000081526004016101b690610737565b60405180910390fd5b60016000803373ffffffffffffffffffffffffffffffffffffffff1673ffffffffffffffffffffffffffffffffffffffff16815260200190815260200160002060006101000a81548160ff0219169083151502179055506001818154811061022a57610229610757565b5b9060005260206000209060020201600101600081548092919061024c906107b5565b919050555050565b6001818154811061026457600080fd5b90600052602060002090600202016000915090508060000180546102879061082c565b80601f01602080910402602001604051908101604052809291908181526020018280546102b39061082c565b80156103005780601f106102d557610100808354040283529160200191610300565b820191906000526020600020905b8154815290600101906020018083116102e357829003601f168201915b5050505050908060010154905082565b60006020528060005260406000206000915054906101000a900460ff1681565b6060600080600190505b6001805490508110156103b0576001818154811061035b5761035a610757565b5b9060005260206000209060020201600101546001838154811061038157610380610757565b5b906000526020600020906002020160010154101561039d578091505b80806103a8906107b5565b91505061033a565b50600181815481106103c5576103c4610757565b5b906000526020600020906002020160000180546103e19061082c565b80601f016020809104026020016040519081016040528092919081815260200182805461040d9061082c565b801561045a5780601f1061042f5761010080835404028352916020019161045a565b820191906000526020600020905b81548152906001019060200180831161043d57829003601f168201915b505050505091505090565b600080fd5b6000819050919050565b61047d8161046a565b811461048857600080fd5b50565b60008135905061049a81610474565b92915050565b6000602082840312156104b6576104b5610465565b5b60006104c48482850161048b565b91505092915050565b600081519050919050565b600082825260208201905092915050565b60005b838110156105075780820151818401526020810190506104ec565b60008484015250505050565b6000601f19601f8301169050919050565b600061052f826104cd565b61053981856104d8565b93506105498185602086016104e9565b61055281610513565b840191505092915050565b6105668161046a565b82525050565b600060408201905081810360008301526105868185610524565b9050610595602083018461055d565b9392505050565b600073ffffffffffffffffffffffffffffffffffffffff82169050919050565b60006105c78261059c565b9050919050565b6105d7816105bc565b81146105e257600080fd5b50565b6000813590506105f4816105ce565b92915050565b6000602082840312156106105761060f610465565b5b600061061e848285016105e5565b91505092915050565b60008115159050919050565b61063c81610627565b82525050565b60006020820190506106576000830184610633565b92915050565b600060208201905081810360008301526106778184610524565b905092915050565b7f596f75206861766520616c726561647920766f74656421000000000000000000600082015250565b60006106b56017836104d8565b91506106c08261067f565b602082019050919050565b600060208201905081810360008301526106e4816106a8565b9050919050565b7f496e76616c69642063616e64696461746520696e646578210000000000000000600082015250565b60006107216018836104d8565b915061072c826106eb565b602082019050919050565b6000602082019050818103600083015261075081610714565b9050919050565b7f4e487b7100000000000000000000000000000000000000000000000000000000600052603260045260246000fd5b7f4e487b7100000000000000000000000000000000000000000000000000000000600052601160045260246000fd5b60006107c08261046a565b91507fffffffffffffffffffffffffffffffffffffffffffffffffffffffffffffffff82036107f2576107f1610786565b5b600182019050919050565b7f4e487b7100000000000000000000000000000000000000000000000000000000600052602260045260246000fd5b6000600282049050600182168061084457607f821691505b602082108103610857576108566107fd565b5b5091905056fea2646970667358221220ad4fe8657678e0405c8727c3043a988cc418fb81f72735fc6d44b9f2245944ea64736f6c63430008140033",
  "linkReferences": {},
  "deployedLinkReferences": {}
}